:04000000A2EF1FF05C
:103F420012000001A5EF1FF0A1EC1FF0CAEC1FF058
:103F52008D848D828D800D0E046EAF0E036EB60EB3
:103F6200E82EFED7032EFCD7042EFAD700F000F07D
:103F72008D948D928D900D0E046EAF0E036EB60E63
:103F8200E82EFED7032EFCD7042EFAD700F000F05D
:103F9200DFD7070E026ED00E016E000E806E000E8D
:103FA200816E000E826E000E836E3F0EB86E000EA2
:103FB200B96E3F0E926E000E936EA00E946E000EBE
:103FC200956EF80E966EF00E7F6E800E7E6E010E6E
:103FD2007A6E7B68300E6F6EF00E6E6E000E6D6E36
:103FE2003F0E6B6E000E6A6E000E6C6E0250786EA3
:0E3FF20001C079FF0250766E01C077FF120009
:020000040020DA
:08000000FFFFFFFFFFFFFFFF00
:020000040030CA
:0E000000FFC60F3E3C9D85FF0FC00FE00F4076
:00000001FF
